:1000000008308A0000280000FF00030E8301A100D1
:100010000A08A0008A010408A2007708A300780853
:10002000A4007908A5007A08A6007B08A70083131E
:1000300083128C308400801E1F288C1A3C288C3040
:100040008400001C25280C183F288B1E29280B191A
:100050004228220884002308F7002408F800250815
:10006000F9002608FA002708FB0020088A00210E64
:100070008300FF0E7F0E09008A110A12D0288A1110
:100080000A1294298A110A1229290A108A100A11BF
:1000900082074434493443344B345434493445346E
:1000A000523400340A108A100A118207483441344D
:1000B000523441344C344434203444344134533485
:1000C00020344C3455345334543449344734453453
:1000D00020344534523444344634453452344B345D
:1000E00045344C3400340A108A100A118207443413
:1000F00049344E34473444344F344E34473420343A
:10010000323430343034303400340A108A100A115A
:1001100082074F344B34543431340A3400340A10DB
:100120008A100A1182074F344B34543432340A3463
:1001300000340A108A100A1182074F344B345434A9
:1001400033340A3400340A108A100A118207443406
:10015000493443344B3454344934453452344134B3
:100160004E345A34453449344734453447344534A1
:1001700052344134453454342034563431342E34DE
:10018000303400348C1EC2281808A8001A08F80061
:10019000A81CCC281812181600008A110A12D1289F
:1001A000C2287808831603179E00603C0318DF28D6
:1001B0001E087A3C031CDF281E08DF39E0281E08D1
:1001C0009D0083120313D01CF028831603171D080B
:1001D000831203130C1AEF2883160317E8289900DB
:1001E00050181429831603171D080D3C031D0429FC
:1001F0002F30831203134F078400831380015014A0
:10020000CF011429831603172F30831203134F07CE
:1002100084008313831603171D08800083120313C1
:100220004F081F3C0318CF0A8C128A110A12292882
:1002300083160317A508031D2329831203138610B1
:100240002629831603178312031386140615061135
:10025000003483160317A00120080A3C031C482918
:10026000831203136F08831603172002031D40290E
:100270000130A500831203131821442983160317A4
:10028000A50183120313182183160317A00A2C2932
:10029000A50183120313182183160317A5018312E6
:1002A0000313182103106F0DA03E84008313840AEA
:1002B0000008FA008403000883160317A1007A08D7
:1002C000A200A00120080D3C031C76292108013959
:1002D000A300A4012308A50083120313182103100F
:1002E00083160317A20CA10CA00A6229A501831290
:1002F0000313182183160317A50183120313182172
:1003000083160317A501831203131821061606127C
:100310006F080A3C031D8E29EF018F29EF0A810126
:100320000B118A110A122928F00B9B29D0150317EB
:100330001308F00003130C108A110A1229288616DC
:10034000831603179601130816020318DD291608F1
:1003500011079700120898000318980A1608140746
:10036000F8001508FA000318FA0A780884008313C5
:100370007A188317000899008C18BC290C111708EB
:1003800083128D008316190883128C0083168C1338
:100390000C15831203130B08F7008B138316031736
:1003A00055308D00AA308D008C147708831203130A
:1003B0008B0483160317960AA3298312031386124C
:1003C0000034831603179201013091005F309300CF
:1003D000013095001030940096011308160203189E
:1003E000102A16081407F8001508FA000318FA0A6C
:1003F0007808840083137A18831716081107990068
:1004000012089A0003189A0A190883128D0083169D
:100410008C130C1483120C0880008316960AED29A5
:1004200083121008313C03197D2A5F30F800103028
:10043000840083178001840AF80B1A2A3130900057
:1004400011109110111592010D3093009401831633
:100450009101920115308400831711088407120856
:100460008312031345208000003803193E2A8316A7
:100470000317920A910A2A2A831203138316031779
:100480009101920133308400831711088407120808
:10049000831203135220800000380319562A831652
:1004A0000317920A910A422A831203138316031731
:1004B00091019201513084008317110884071208BA
:1004C0008312031373208000003803196E2A8316E9
:1004D0000317920A910A5A2A8312031383160317E9
:1004E0009201013091005F3093000130950010308F
:1004F0009400831203139F21031703138A150A1212
:100500005D2803171118882A031305108A2A031778
:100510000313051403179118912A03138510932AC6
:100520000317031385140034F701F801831603172A
:10053000180803101918F707F70CF80C9918F707A3
:10054000F70CF80C1919F707F70CF80C9919F707BD
:10055000F70CF80C191AF707F70CF80C991AF707AB
:10056000F70CF80C191BF707F70CF80C991BF70799
:10057000F70CF80C831203130034831603171408C6
:100580009600130895001608FA00150884008313D6
:100590007A18831780080319D12A950A0319960A35
:1005A000C32A13081502F7001608FA001408031CE2
:1005B000140FFA027708F8007A08F900831203137F
:1005C00000342430831603171B02C43E0318CA2BC1
:1005D0003C3E83120313D02B0F30F8003C30F9005F
:1005E000CF2B0230F8000830F900CF2BC330F800D1
:1005F0003030F900CF2B4330F8002830F900CF2BF2
:10060000C630F8000830F900CF2BC530F80028308C
:10061000F900CF2BC530F8003830F900CF2B03306C
:10062000F8000830F900CF2BC730F8003830F90057
:10063000CF2BC730F8002830F900CF2BC730F80097
:100640001830F900CF2B5330F8002A30F900CF2BA7
:100650000530F8003030F900CF2B1330F8002A3085
:10066000F900CF2BC530F8003030F900CF2B8530A2
:10067000F8001030F900CF2B4530F8003830F90081
:10068000CF2BC630F8001830F900CF2B1030F8000F
:100690000230F900CF2B0230F8003830F900CF2BB0
:1006A0008C30F8001130F900CF2B0430F8003030D6
:1006B000F900CF2B2E30F8001830F900CF2B263060
:1006C000F8001930F900CF2B0730F8003830F90066
:1006D000CF2BC730F8001030F900CF2B0730F800CF
:1006E0003930F900CF2BC730F8001130F900CF2B8B
:1006F000C530F8002830F900CF2B1130F800023057
:10070000F900CF2B0630F8003830F900CF2B0C3031
:10071000F8001430F900CF2B0630F8001D30F90036
:10072000CF2B2830F8000530F900CF2B2830F80007
:100730000230F900CF2B0930F8002430F900CF2B1C
:10074000D030F8000230F900CF2BC030F800003074
:10075000F900CF2BF830F8000730F900CF2B00302C
:10076000F8002030F900CF2B0830F8000430F900F1
:10077000CF2B0030F8000430F900CF2B1030F800F8
:100780000030F900CF2BD530F8002A30F900CF2BFC
:10079000831603170030F800F900831203130034A6
:1007A0000A148A140A11D73E03188A0A8200C32B3E
:1007B000C82BC82BBE2BC82BC82BAA2BA02BB92B00
:1007C000A52BC82BB42BEC2AF12AF62AFB2A002BE6
:1007D000052B0A2B0F2B142B192BC82BC82BC82B1E
:1007E000C82BC82BC82BC82B1E2B232B282B2D2BFB
:1007F000322B372B3C2B412B462B4B2B502B552B85
:100800005A2B5F2B642B692B6E2B732B782B7D2B34
:10081000822B872B8C2B912B962B9B2BC82BC82B99
:10082000C82BC82BAF2B831603171610950115087C
:10083000093C031C5E2C150813078400831314184D
:100840008317800803191614161C342C15080A3C4B
:10085000F7000310F70D7708A03E84008313840A85
:100860008001840380015C2C15080A3CF70003100A
:10087000F70D7708A03EF800FA010318FA0A780885
:1008800098007A0899001508130784008313141838
:10089000831700089A009B0083120313E12283163A
:1008A000031718088400831319188317840A79081A
:1008B0008000840378088000950A172C83120313A4
:1008C000003403171208831698001E309900831213
:1008D000031394227808053EF800FA010318FA0A77
:1008E0007808103EF8000318FA0A0130FA07780871
:1008F0008316031791007A08920094001108930060
:1009000083120313BD227908831603179300780816
:1009100092009308031D902C12080A3C0318962C91
:10092000831203135015992C831603178312031394
:10093000501103171308F0000A30F1001208831653
:1009400098001E3099008312031394227808053E04
:10095000F800FA010318FA0A7808103EF8000318A4
:10096000FA0A0130FA0778088316031791007A080B
:10097000920094001108930083120313132400348F
:10098000831603179201013091005F30930001300C
:10099000950010309400831203139F2100343030EF
:1009A0008316031711023030110294003030120206
:1009B00014020319DD2C0318E02C0030F800E22C9F
:1009C0000130F800831203130034831603179108D3
:1009D00003190F2D4530831203130C1AF22C8316C2
:1009E0000317EB2C990052300C1EF42C9900203088
:1009F0000C1EF82C99005130840083130030000441
:100A00000319082D0C1E022D00089900840AFE2CE3
:100A10000A300C1E092D9900312D831603174F3013
:100A2000831203130C1A172D83160317102D990028
:100A30004B300C1E192D990020300C1E1D2D9900D5
:100A40005130840083130030000403192D2D0C1E37
:100A5000272D00089900840A232D0A300C1E2E2D04
:100A60009900D10100347508840083137618831728
:100A70008316031715088000840A8001F50A0319FC
:100A8000F60A831203130034831603171608F801BD
:100A9000150203184E2D1508F7005A2DF7010830DE
:100AA0009700950DF70D160877020318F700F80D5B
:100AB000970B512D83120313003478088316031704
:100AC00013089500643096008312031344257708B9
:100AD00083160317930078083030031D762D941C7D
:100AE000812D9419812D141A2030792D941114120E
:100AF0001414F8077808950083120313332583161E
:100B00000317130895000A30960083120313442537
:100B1000770883160317930078083030031D962D4D
:100B200094199E2D141C9E2D141A2030F807780855
:100B30009500831203133325831603173030930770
:100B4000130895008312031333250034831603170B
:100B5000140899001308980097080319D72D160850
:100B6000FA001508840083137A1883178008031984
:100B7000D72D1908FA001808980A0319990A9A003B
:100B80007A089B001608FA001508950A0319960AB8
:100B9000840083137A18831700089C001A088400C5
:100BA00083131B1883171C0880009703AC2D97082C
:100BB0000319E72D1908FA001808980A0319990A69
:100BC000840083137A18831780019703D72D1308A5
:100BD000F8001408F900031383128A150A12F12988
:100BE00083160317960194010A30950093011108AA
:100BF0001204031DFE2D0030F800D22E1608960AAE
:100C00001107840083131218831700089700170830
:100C10002D3C031D172E013094001608960A11076B
:100C2000840083131218831700089700242E1708D6
:100C30002B3C031D242E1608960A110784008313EB
:100C4000121883170008970017082F3C0318C82EA6
:100C50001708393C031CC82E1708303C031D502EC2
:100C60001608110784008313121883170008783CB4
:100C70000319442E160811078400831312188317D2
:100C80000008583C031D502E10309500960A160897
:100C9000960A11078400831312188317000897001F
:100CA00015080A3C031D762E17082F3C0318752ED5
:100CB0001708393C031C752E0A3098001308990058
:100CC0008312031394227808831603179800303098
:100CD0001702180793001608960A11078400831359
:100CE0001218831700089700542EC82E1508103CC0
:100CF000031DC82E1708603C0318852E17087A3C80
:100D0000031C852E1708DF39862E17089700170851
:100D10002F3C03188F2E1708393C0318972E1708FD
:100D2000403C0318C82E1708463C031CC82E170861
:100D30002F3C0318A82E1708393C031CA82E130EAD
:100D40009800F03098053030170218079300B12E44
:100D5000130E9800F0309805413017020A3E18072C
:100D600093001608960A110784008313121883173C
:100D7000000897001708603C0318C52E17087A3C36
:100D8000031CC52E1708DF39C62E17089700872EBB
:100D9000140BD02E15080A3C031DD02E9309930A7C
:100DA0001308F8008312031300340A308316031764
:100DB00096001608013C0318062F0310160DA03EDE
:100DC000F800FA010318FA0A780897007A089800E0
:100DD00001301602F7000310F70D7708A03E8400DB
:100DE0008313840A0008FA00840300089A007A0832
:100DF0009B0017088400831318188317840A1B08A4
:100E0000800084031A0880009603D92E15089B00E1
:100E100083120313E12279088316A3007808A20045
:040E20008312003405
:10100000840183131F30830583161F149F141F153B
:101010009F11153099002630980090308312980067
:10102000A801A901AA010130AB00AC01AD01AE01DC
:10103000CF015010D014D101D201D301D401D50178
:10104000D601D701D801D901DA01DB01DC01DD01CC
:10105000DE01DF01E001E101E201E301E401E5017C
:10106000E601E701E801E901EA01EB01EC01ED012C
:10107000EE01EF015011F001D011F101F201F30185
:10108000F401F501F6011C3083168500003086005E
:10109000113083128500861683160108C039043882
:1010A00081008530831290008B1683160C148C16E9
:1010B000C03083128B048A11E1298A158A1181229A
:1010C0008A158A1161248A158316A101A001831251
:1010D000861205198F2883160317910111088A11AA
:1010E0008312031385208A1583160317910AF700CC
:1010F000831203130C1A7F2883160317782899008C
:101100000530831603171102031D6E288312920106
:101110008A110313C0248A158A1161248A1585193E
:10112000B62883160317910111088A11831203133D
:101130008F208A1583160317910AF7008312031371
:101140000C1AA528831603179E28990005308316CC
:1011500003171102031D94280130831292008A1193
:101160000313C0248A158A1161248A15051ADD2803
:1011700083160317910111088A1183120313992012
:101180008A1583160317910AF700831203130C1AAA
:10119000CC2883160317C52899000530831603173A
:1011A0001102031DBB280230831292008A1103131F
:1011B000C0248A158A1161248A15501CAD2B501049
:1011C0002F080317EF003030031330028316031784
:1011D000900083126F084C3C031D662903133008EE
:1011E000831603179100323092008A118312031381
:1011F000CF248A15F808031D0B293108831603171D
:101200009100313092008A1183120313CF248A1582
:10121000F8080319152901308316031791008A1164
:1012200083120313E5248A1564293008313C031D19
:10123000262930303102F8007818222903171110BE
:101240002429031303171114352903133008323CE2
:10125000031D362930303102F8007818332903177E
:10126000911035290313031791140313F60151301C
:10127000F5004C308316031795008A11831203136F
:1012800033258A1583160317100893001B3094002A
:101290008A11831203135D258A15310883160317FB
:1012A00095008A118312031333258A158A1181222E
:1012B0008A158A11C0248A158316031791018A1191
:1012C00083120313E5248A15AD2B03176F08543CD2
:1012D000031DAC2983169401303093008A118312C8
:1012E000031313248A15BA01F6015130F500543066
:1012F0008316031795008A118312031333258A1569
:10130000303084008313003000040319A1298316B0
:1013100003179201040891001210831B1214000895
:1013200095008A118312031333258A158316031738
:1013300011088400831312188317840A831203137D
:10134000832950118316031791018A118312031305
:10135000E5248A15AD2B03176F085A3C031DBA29E3
:101360000130831691008A1183120313E5248A1534
:10137000AD2B03176F084D3C031D642A831610081C
:10138000023C031C5B2A83120313B1080319002AD1
:1013900083160317100898001E3099008A118312D3
:1013A000031394228A157808053EF800FA01031801
:1013B000FA0A7808103E8316031791007A08920003
:1013C0000318920A01309207120894001108930042
:1013D0009601313095001D3097008A118312031356
:1013E000A62D8A158A11C0248A15031712088316A0
:1013F0001002031D022A8A118312031361248A1525
:1014000083160317100898001E3099008A11831262
:10141000031394228A157808053EF800FA01031890
:10142000FA0A7808103E8316031791007A08920092
:101430000318920A01309207F6015130F5004D3041
:1014400095008A118312031333258A158316031717
:10145000100893001B3094008A11831203135D253A
:101460008A15831603171108840083131218831733
:10147000003000040319522A940104089300141048
:10148000831B1414000895008A118312031333255B
:101490008A158316031713088400831314188317FF
:1014A000840A382A91018A1183120313E5248A15CC
:1014B000622A83160317013091008A1183120313E5
:1014C000E5248A15AD2B03176F08523C031D792ABA
:1014D00090018A110313C0248A1583160317910102
:1014E0008A1183120313E5248A158A010028AD2B83
:1014F00003176F08533C031DCF2A83161008043CC2
:10150000031CC42AF6015130F500533095008A11AE
:101510008312031333258A158316031710089300CB
:101520001B3094008A11831203135D258A158316DC
:1015300003171008023C031CB22A10088312920001
:101540008A110313C0248A158A1161248A1583160F
:10155000031791018A1183120313E5248A15C12A06
:10156000831603171008033C031DC32A83120313B9
:1015700086168316031791018A1183120313E5243B
:101580008A1583160317CD2A013091008A11831220
:101590000313E5248A1583160317AF2B83126F08F4
:1015A0004F3C031D622B83161008043C031C592B6F
:1015B000100BEE2A831203133208303C031DE42A79
:1015C00003171111EA2A03133208313C031DEB2AD9
:1015D000031711150313202B831603171008023C61
:1015E000031DFF2A9201313091008A1183120313E7
:1015F000F0258A15780803179300232B831610080B
:10160000033C031D102B9201313091008A1183128B
:101610000313F0258A15780803179400232B8316EB
:101620001008043C031D222B831203133208303CA4
:10163000031D1C2BD010202B3208313C0319D01471
:10164000831603178312F6015130F5004F308316CD
:1016500095008A118312031333258A158316031705
:10166000100893001B3094008A11831203135D2528
:101670008A1531088316031795008A118312031304
:1016800033258A1532088316031795008A118312B1
:10169000031333258A158A11C0248A15831603176C
:1016A00091018A1183120313E5248A15602B831696
:1016B0000317013091008A1183120313E5248A1560
:1016C000AD2B03176F08503C031D7E2B14088316A7
:1016D00094008312031330088316031795008A11B0
:1016E00083120313D5268A158316031791018A11D5
:1016F00083120313E5248A15AD2B03176F08563C9C
:10170000031DA52B83169101920151308400831390
:101710001108840712088A1183120313A3208A1563
:101720008000003803199B2B83160317920A910A35
:10173000852B831203138316031791018A118312D9
:101740000313E5248A15AD2B03170130831691008E
:101750008A1183120313E5248A1583160317831253
:101760000313D01D142CD011501D142C0317111964
:10177000BB2B0313142C1208831698001E309900FB
:101780008A118312031394228A157808053E831662
:101790000317910092010318920A71081107F800CB
:1017A0001208FA000318FA0A7808103E840083171A
:1017B0000008930083121408831694001308950000
:1017C0008A1183120313D5268A150317120883166C
:1017D00098001E3099008A118312031394228A15EF
:1017E0007808053EF800FA010318FA0A7808103E56
:1017F0008316031791007A0892000318920A0130A9
:10180000920712089400110893008A11831203139F
:10181000BD228A1578087102031D132CF908031DD7
:0C182000132CF101142CF10A692863005C
:02400E003A3F37
:00000001FF
;PIC16F877
